:020000041000EA
:1000000000200008EB0000100D0000004D01001062
:1000100000000000000000000000000000000000E0
:100020000000000000000000000000004901001076
:10003000000000000000000049010010490100100C
:100040004901001049010010490100104901001048
:100050004901001049010010490100104901001038
:100060004901001049010010490100104901001028
:100070004901001049010010490100104901001018
:1000800010B5064C2378002B07D1054B002B02D06E
:10009000044800E000BF0123237010BDB003000836
:1000A000000000000C150010044B10B5002B03D00D
:1000B0000349044800E000BF10BDC0460000000036
:1000C000B40300080C1500100230800803D0013082
:1000D0000238FCD1C046C0467047EFF3108072B6BC
:1000E000704780F3108870477047FFF7FDFF72B6C6
:1000F0000F4C104DAC4209DA21686268A368043BDA
:1001000002DBC858D050FAE70C34F3E70A490B4A2F
:100110000020521A02DD043A8850FCDC08480949E4
:100120000860BFF34F8F00F0F9FE00F0A9FEFEE774
:100130001815001030150010B0030008C80500089D
:100140000000000808ED00E0FEE7FEE700B504202F
:100150007146084202D0EFF3098002E0EFF3088015
:10016000043000F08DFCFEE7014B18607047C0467C
:10017000C4050008044B1B681A00BA3212881B6AB7
:100180005043C0187047C046C40500081D4B984234
:100190000FD010D840282FD005D8002830D01028F4
:1001A00028D019481EE0802828D080235B00984280
:1001B000F7D1144816E0154B984214D008D8A02364
:1001C0001B0698421CD0124B9842EAD1A0200BE0AB
:1001D000104B98420AD0104B984209D00F4B9842CE
:1001E000DFD10F487047A420C003FBE70D48F9E7B3
:1001F0000D48F7E70D48F5E70D48F3E70D48F1E73F
:100200000020EFE706005200FF005200010000F05E
:10021000090000A0040000F0050000F0030000F059
:100220000100520002005200030052000100500081
:10023000020050000500520010B50020FFF79AFFA1
:100240000A4B1C682300BC331B68C0180368002BD2
:100250000ADB074B1868FFF799FF012263689A6071
:100260009A68002AFCD110BD0248FCE7C4050008CA
:10027000CC03000802005000064B1B68BC331B680F
:10028000C3181B68002B03DA89B241600020704755
:100290000148FCE7C405000801008A000368002B40
:1002A00004DA89B2C2608160002070470048FCE730
:1002B00001008A00064B1B68BC331B68C3181B680F
:1002C000002B03DAC36800200B6070470148FCE78D
:1002D000C405000801008A00024B1A68002A00D1F8
:1002E00018607047E0030008F0B52C246043154CFB
:1002F0001F0024681D0A2018FF2425402740124CA7
:100300001B0C26680760346A45608360BA363688FD
:1003100077433F1907612F0080376D017F01E7198F
:1003200064190A4D47611F043B436419236000238D
:100330008361059BC2610162002B01D01B88838110
:10034000F0BDC046E0030008C40500080810000026
:10035000F0B5836885B002AD2B800368066A173359
:100360006B804368476A0095826AC16A0400039300
:100370000369C068FFF7B8FF00213B000A00009145
:100380003000FFF7B1FF216B280000F02DFB0022A9
:10039000AB5E002B06DB1F2213401E3A9A4013006F
:1003A000014A136005B0F0BD00E100E0F7B52C256F
:1003B000134C684326686943341825690193711802
:1003C000002D19D08869002818D12E68002E15DA62
:1003D0006768012426004B689E40B44613689EB2AD
:1003E00063461B041E431660EA608C61BC40019B9F
:1003F000A4B24B62AC60FEBD0248FCE70248FAE7DB
:10040000E003000804028A0007028A0073B5002690
:1004100042690400D56801962B0CB34221D01B041D
:1004200013601368194B00691B68BC331B68C31841
:100430001B68B34215DA01A9FFF73CFFB0420CD1AB
:100440000198E26903681E0CDBB29A4205D9226A60
:100450009B009B58002B00D0984731002069FFF784
:100460000BFFADB2002D09D063691D6000251B682C
:10047000636AAB4205D098476562A56163691B68F2
:1004800073BDA36A002BF8D09847F6E7C4050008AF
:100490002C2310B54343034A1068C018FFF7B6FF7A
:1004A00010BDC046E0030008F8B5194B0F001B68EB
:1004B0001A0033321278824227D9002925D01F250D
:1004C0000A68154021D11900BA310C88114E6043D9
:1004D0001C6AD208041929007868346000F07EFF95
:1004E00029002000FFF7C8FE3A0029003068FFF716
:1004F000D5FE041E07D101003068FFF7BDFE0300E2
:100500002000002B00D00448F8BD0448FCE7C0469A
:10051000C4050008E403000801018A0003018A0001
:1005200010B5002A0DD1002914D10B4B1A68130005
:10053000BA331B885843136AC018084B1860080068
:1005400010BD002906D0064B196019005A60FFF74C
:10055000ABFFF5E70348F3E7C4050008E403000830
:100560007803000803018A00F7B5184F04003B68C0
:100570000191DE683368834226D90025A94202D161
:10058000FFF7ABFD050038680368002B1ADA1F225D
:1005900001232240934064097268A4001419226860
:1005A00013420DD09A43226000240021FFF764FE1D
:1005B000019B002B02D12800FFF793FD2000FEBD18
:1005C000034CF2E7034CF3E7034CF7E7E4030008BE
:1005D000020188000301880004018A000A4B1B689D
:1005E000DB681A6882420DD959681F2342091840F6
:1005F0001E3B8340920050581840431E9841034BC5
:10060000C01870470248FCE7E403000800018800B6
:1006100004018A00054B1B681A0088321B681268A7
:100620009B181868000AC0B27047C046C40500088D
:10063000044B1B681A0088321B6812689B181868E4
:10064000000E7047C4050008024B18694007C00F30
:100650007047C04600002740A6220549D2008B58AB
:100660000220DB439B0702D00123885818407047C3
:100670000000264010B5FFF7EFFF0023022801D14C
:10068000014B1B68180010BDEC030008094A8300E9
:100690009B18D0229200985807221040042807D1B6
:1006A000C022920098581F23034080204000184326
:1006B0007047C0460000264010B5FFF7E7FF02284C
:1006C0001CD005D8002824D0012814D0002014E024
:1006D0001223FF33984214D01423FF33984215D0CD
:1006E000033B9842F2D10C4A0C4BD358002BEDDA65
:1006F0008020000201E00A4B186810BDFFF7BAFF26
:10070000FBE7FFF7A1FF0028E0D0F1E7024A054B25
:10071000EBE70548F1E7C046000026400C05000065
:10072000E80300083C05000000127A00B023154AD7
:10073000DB00D35810B59903DB01DB0F890BC371C4
:10074000114B0160D3580F24D904DB01DB0D038169
:10075000B123DB00D358C90C81801900214081727C
:1007600019092140C172D9029B009B0F8373074B6B
:10077000C90CD35881815A05DB01520FDB0D827100
:10078000038210BD00002640840500008C05000097
:1007900010B5104B421E1B683F331B78934216D98D
:1007A0007F221F248030FF300B4B8000C3581A403B
:1007B0000A701A0C2240180A8A701A012040E2407E
:1007C000487000209B009B0FCA700B7110BD03483E
:1007D000FCE7C046C40500080000264001004A00AE
:1007E000F0B589B003AC14220021200000F0F6FD22
:1007F0002000FFF79BFFB0231A4ADB00D2580023EA
:100800009A4203DAA37B023B5A1E9341E579002604
:100810006A1E95410135B34221D0A488B4421ED04E
:10082000039B30000193FFF747FF2A0033000700C6
:100830003100200000F0BCFC0C0005003300019AE0
:100840003100380000F0B4FCE6076A083243630860
:10085000801859412A00230000F08AFC060030006D
:1008600009B0F0BD00002640F0B50026244B85B04D
:100870001B6807003F331B78B3423ED0B0423CD0E8
:1008800083423AD30522310002A800F0A7FD02A955
:100890003800FFF77DFF3B008033FF33194A9B0090
:1008A0009B58B34229DA02AB1B79022B25D002AB4D
:1008B0005C78B44221D09D78B5421ED01B783800B8
:1008C0000193FFF7F9FE2A003300070031002000F2
:1008D00000F06EFC0C0005003300019A3100380076
:1008E00000F066FCE6076A08324363088018594145
:1008F0002A00230000F03CFC0600300005B0F0BDEB
:10090000C40500080000264010B5041E04D1FFF7FE
:1009100067FF002806D008E0064B1B683F331B78B2
:10092000834203D22000FFF7C7FE10BDFFF79CFFF4
:10093000EFE7C046C4050008E02210B50124094BCA
:1009400080009200C018835880589B069B0F9C40E3
:100950000F231840FFF7D8FF63081818210000F094
:100960007BFB10BD00002640144B30B51A680724ED
:1009700013002C331B781F2B15D883081D00A543AB
:100980002C1E0FD103342040A040814012689B00F0
:100990002032D3180A00FF2181401C6862401140B8
:1009A0006140196030BD802320401B06184380231E
:1009B0009B011268C91889008850F3E7C405000834
:1009C000064B9A680300064810339B00824202D10E
:1009D000985899507047034AD058FBE700ED00E063
:1009E0000000000800000010F8B506000D00002807
:1009F0003AD00023C05E002828DB7188FFF7B4FFDF
:100A00000024FF22032794460023F05E716883B21E
:100A10001F40FF006646BA4089013140D243B940C9
:100A2000002815DB114E83089B009B19C026B600D9
:100A30009F593A40114399510D4B9A680D4B9A4278
:100A400002D12900FFF7BCFF2000F8BD0A4CD8E70F
:100A50000F263340083B064E9B089B009B19DE691E
:100A600032401143D961E7E7034CEDE700E100E0D4
:100A700000ED00E00000000801005600FEE7000065
:100A800002680A4B10B51A6042685A6082689A6020
:100A9000C268DA6002691A6142695A6182699A61C0
:100AA000C269DA61FFF7EAFF10BDC0469003000893
:100AB000B0235B055A782120002A01D05878C0B2B3
:100AC0007047B0235B059A89002A02D0988980B2CA
:100AD000704780204000FBE77FB5274B86000D0064
:100AE000F458042901D0012927D100200FE0A36880
:100AF0002B420BD1E36829001A685B6802920193CC
:100B0000039302A8236898471C4B1C606469002C5F
:100B10000BD01B4B9842EAD1012DE8D1174B184856
:100B20001A68184B9A5104B070BD012DFBD1144BBB
:100B30009842F3D0134B9C51F5E7022906D10F4B95
:100B40001B68181EEFD01C6903E01C006369002BB2
:100B5000FBD10020002CE6D0A3682B4209D1E3682A
:100B600029001A685B6802920193039302A8236824
:100B700098472469EEE7C046300400082C040008BA
:100B8000FF004200180400081A4B1B681900883146
:100B90001A68096851180968016219008C310968DE
:100BA0005218126842621A0046321278002A1FD088
:100BB0009A68E0321268D2061AD5F222DB68D201B6
:100BC0009A580260F022D2019A5842600A4A9A5812
:100BD00082600A4A9A58C260094A9A580261094AD0
:100BE0009A584261084A9A588261084A9B58C361E0
:100BF0007047C046C405000804780000087800006B
:100C00000C780000107800001478000018780000BC
:100C10001A4B1B681A008832196812688A18016A10
:100C200011601A008C32196812688A18416A1160C2
:100C30001A0046321278002A1ED09A68E0321268F2
:100C4000D20619D5F0224168DB68D201995081683B
:100C50000B4A9950C1680B4A995001690A4A995048
:100C600041690A4A99508169094A9950C169094AFA
:100C700099500168E83299507047C046C405000891
:100C800004780000087800000C780000107800005C
:100C90001478000018780000F7B50700FFF708FF88
:100CA000664D06006B68002B00D07DE0FFF715FA5B
:100CB0006B680090002B00D089E0614C2268130023
:100CC000BA33198807234B43126A9B181A68002A03
:100CD000FCDADB68DA0021D51B0F1B0759480193AA
:100CE000FFF752FF5849212E00D075E0226890206E
:100CF000130088331C68136800011C1923680B401B
:100D00000343236013008C3312681B68D3181A68DE
:100D10001140084318604B4B019A13438022484E00
:100D20009205316813430A00BA3210880722002462
:100D30004243096A5218D36054605368FFF7C1FEFA
:100D400080235B0098425DD1380000F05DFB326883
:100D50001300BA33198807234B43126A9B181A6889
:100D6000002AFCDADF68FB0003D538010009FFF731
:100D70004FFF364B32681F401300BA3319880723E0
:100D80004B43126A00989B180022DF605A60FFF7FD
:100D9000A8F9002C0FD16B68002B03D0082101208B
:100DA000FFF79AFE2000FEBD01210800FFF794FE28
:100DB000041E00D17AE76B68002B03D002210120CA
:100DC000FFF78AFE224B9C42ECD0224CEAE704213A
:100DD0000120FFF781FE70E720688022030088333E
:100DE0001C68036852001C1923680B4013432360DE
:100DF00003008C3300681B68C318186801400A435D
:100E00001A6088E733681A00BC32196A12685218EF
:100E10001168002910DBBA331B889A181368002B5D
:100E20000ADB04230C4A11690B431361012F01D023
:100E300030BF8CE720BF8AE7054C88E73004000804
:100E4000C4050008F0030008FF00FFFFFFFFFFDFFD
:100E500005004200FF00420000ED00E0C0228020BB
:100E6000064952008B58C0059B009B0803438B50DA
:100E7000802388581B0603438B5070470000264090
:100E800010B562B6034800F0C1F80020FFF704FF78
:100E9000FBE7C0460020001010B50020FFF7F8FA6D
:100EA00010BD704710B50020FFF746FD041E25D089
:100EB000134B1860FFF7BCFB411C200000F0CCF87E
:100EC000104B04001860FFF7A5FB411C200000F048
:100ED000C3F80D4B441E18600C49200000F0BCF80C
:100EE000FA210B4B013018708900200000F0B4F893
:100EF000084B01301860084BC003186010BDC04695
:100F000084000008880000088000000840420F00AC
:100F100094000008900000088C00000810B52048DC
:100F2000FFF722F9B022E02130201E4CD200A35856
:100F300089005B005B08A3506358834363508023A0
:100F40005B04A350184B194AE250A02204339201CB
:100F5000E250FF22164BE250FFF780FFC022012132
:100F60005200A3588B43A350FFF79BFFFFF79AFF54
:100F7000104B03201A681300BA33198807234B4318
:100F8000126A80219B180022DA605A600A4AFFF731
:100F9000C7FA0A48FFF7A0F90948FFF7D9F910BDC9
:100FA0001814001000002640840500000100020013
:100FB0008C050000C40500088003000844040008F4
:100FC000D81400109023034A5B01D0580323184023
:100FD0007047C0460000204010B59024FFF77DF810
:100FE000074B64011A5907491140074A0A431A512D
:100FF000102259681142FCD0FFF773F810BDC046AB
:1010000000002040FCFF00000100FA05F8B5902523
:101010000E4C6D010700FFF760F863590600DB43D3
:101020009B0701D1FFF7D8FF80239B00E75063594E
:10103000074A1A40074B13436351102362681A4250
:10104000FCD03000FFF74DF8F8BDC046000020404E
:10105000FCFF00000300FA05002243088B4274D312
:1010600003098B425FD3030A8B4244D3030B8B42A9
:1010700028D3030C8B420DD3FF22090212BA030CB2
:101080008B4202D31212090265D0030B8B4219D393
:1010900000E0090AC30B8B4201D3CB03C01A5241B3
:1010A000830B8B4201D38B03C01A5241430B8B42FB
:1010B00001D34B03C01A5241030B8B4201D30B03E4
:1010C000C01A5241C30A8B4201D3CB02C01A52410B
:1010D000830A8B4201D38B02C01A5241430A8B42CE
:1010E00001D34B02C01A5241030A8B4201D30B02B7
:1010F000C01A5241CDD2C3098B4201D3CB01C01AD1
:10110000524183098B4201D38B01C01A52414309DA
:101110008B4201D34B01C01A524103098B4201D3C8
:101120000B01C01A5241C3088B4201D3CB00C01A35
:10113000524183088B4201D38B00C01A52414308AD
:101140008B4201D34B00C01A5241411A00D20146D2
:10115000524110467047FFE701B5002000F006F845
:1011600002BDC0460029F7D076E770477047C046F9
:10117000002B11D1002A0FD1002900D1002802D064
:101180000021C943081C07B4024802A1401802907C
:1011900003BDC046D9FFFFFF03B4684601B50298FE
:1011A00000F030F8019B9E4602B00CBC7047C04670
:1011B000F0B5CE46474615042D0C2E0080B5070429
:1011C000140C3F0C9946030C7E435D436743634315
:1011D0007F19340CE4199C46A54203D980235B0295
:1011E0009846C4444B4643435143250C360465445A
:1011F000360C2404A4195B19591820000CBC904625
:101200009946F0BDF0B54F464646D646C0B50400F7
:1012100082B00D00914698468B422FD82CD0414683
:10122000484600F0CFF829000600200000F0CAF878
:10123000331A9C46203B9A4600D576E04B465246F0
:1012400093401F004B46624693401E00AF4228D891
:1012500025D05346A41BBD41002B00DA7BE00022C1
:1012600000230092019301235246934001930123EE
:1012700062469340009318E08242D0D900220023B6
:10128000009201930A9B002B01D01C605D600098C6
:10129000019902B01CBC90469946A246F0BDA342FB
:1012A000D7D900220023009201936346002BE9D096
:1012B000FB079846414672080A437B0866460EE0E3
:1012C000AB4201D1A2420CD8A41A9D41012024199D
:1012D0006D410021013E24184D41002E06D0AB4245
:1012E000EED9013E24196D41002EF8D100980199E4
:1012F000534600196941002B23DB2B005246D34093
:101300002A006446E2401C0053461500002B2DDBEA
:1013100026005746BE40330026006746BE403200D6
:10132000801A994100900191ACE7624620239B1AF4
:101330004A46DA406146130042468A4017001F437E
:1013400080E7624620239B1A2A0066469A402300C3
:10135000F3401343D4E76246202300219B1A002266
:10136000009101920122DA40019280E72023624637
:1013700026009B1ADE402F00B0466646B740464620
:101380003B003343C8E7C0461C2101231B0498429D
:1013900001D3000C10391B0A984201D3000A083906
:1013A0001B09984201D30009043902A2105C4018BD
:1013B0007047C04604030202010101010000000061
:1013C0000000000010B5002903D1FFF7DDFF203039
:1013D00002E0081CFFF7D8FF10BDC046030012183A
:1013E000934200D1704719700133F9E7F8B5C04650
:1013F000F8BC08BC9E467047F8B5C046F8BC08BCAF
:101400009E4670470000000001B40248844601BCBB
:10141000604700BF61020008000020400000244037
:1014200000000040000000000000234000003040A9
:101430000000314000009F400000224000001040AA
:1014400000009B402020202020132010101E208010
:1014500017007500FF03050104001C0310000000C5
:101460001FC0000000040000000000000019324B03
:10147000647D0202000000804000080B10000000A4
:101480000000FF012002001F00800004FF08101868
:10149000001000140018001C4044484C500000008C
:1014A0000810000008000000040000000410000004
:1014B00000120000042100000021000000160000BE
:1014C00040114002C41300138013A013401388136B
:1014D000A81320001C000000030000000100000011
:1014E000010000000000000005036000040000008F
:1014F0000100000000000000010000000604600080
:1015000008000000A4050008990E0010000000006B
:10151000F4FCFF7F01000000000000100000000844
:10152000800000003815001080000008F80200005C
:10153000B00300081802000000093D0000127A0004
:1015400000093D000000D007A00F000004000000CB
:10155000A90000108100001080B230B5C00020D07A
:10156000104B07221C682300BA331B885A43236A96
:10157000D31819680029FCDA3E210B4B06251960A7
:101580000A4B0B491960A3210A4BC9005D500A4957
:1015900058505858206A1218002050605A58002A93
:1015A000FCDA30BDC40500080401264008012640CD
:1015B0001E1F0000000026401C05000010B54378E7
:1015C000FF2B11D100F00CF90400032000F0E8F823
:1015D000C3685A68012311681943116011681942E0
:1015E000FCD1200000F01CF910BDF7B500900020E0
:1015F000019100F0D5F83F4D06002B681A005033DA
:10160000BC3214681B780419002B5AD000F0F8F88B
:10161000070003281BD000F0E3F8374A374B0500DA
:10162000D358002B3EDA364A0121300000F0C0F8D2
:10163000002837D10198FFF78FFF009B002B3ED089
:101640002368002BFCDB00F0C3F804002BE006202D
:1016500000F0A6F82B68BC331B68C0180368002B89
:1016600002DA284C2000FEBD002000F0C1F8264B15
:101670009842F6D00023254A19001268012000F094
:101680009FF80025A842ECD1002000F0B1F81E4AD6
:101690001F4B904203D09D42E3D00135F4E79D42B9
:1016A000B9D1DEE7174C032F05D10121002000F04E
:1016B000AFF80028F9D1280000F0B2F8D2E7154CB5
:1016C000F1E700F08DF80E4A05000121300000F02E
:1016D0006FF8002809D1009B002B08D02368002B4D
:1016E000FCDB00F075F80400E5E7064CE3E7094C85
:1016F000E1E7C046C4050008000026401C050000C4
:10170000CC0300080500520001018800DC0300083A
:10171000F049020001005000184BF7B51B68184A49
:101720005C68042311690B431361012824D030BF86
:101730002300FC331B69002B1DD1A320114B124940
:10174000124AC0000F681E5815680195104D0D60B3
:1017500006251D503E2010600E483E351D501D5878
:10176000002DFCDA0C48FC3420610F60A321C90075
:101770005E50019B1360F7BD20BFD9E7C405000888
:1017800000ED00E00000264008012640040126404C
:101790001E1F00001C050000AAAAAAAA0000000043
:1017A00001B40248844601BC604700BF75010010C7
:1017B00001B40248844601BC604700BF9D0200108E
:1017C00001B40248844601BC604700BFAD0300106D
:1017D00001B40248844601BC604700BF39020010D2
:1017E00001B40248844601BC604700BFDB00001022
:1017F00001B40248844601BC604700BFDD0500100B
:1018000001B40248844601BC604700BFC50F001008
:1018100001B40248844601BC604700BF690500105E
:1018200001B40248844601BC604700BFE3000010D9
:1018300000000000000000000000000000000000A8
:081840000000000000000000A0
:1020000000F80108412300100D000000B523001066
:10201000B5230010B5230010B52300100000000008
:1020200000000000000000000000000061580010E7
:10203000B1230010000000000159001001580010E9
:10204000B123001000000000B1230010B1230010E4
:1020500000000000B1230010B1230010B1230010D4
:10206000B1230010B1230010B1230010B1230010E0
:10207000B123001000000000B1230010B1230010B4
:10208000B1230010B1230010B1230010B1230010C0
:10209000B1230010B1230010B1230010B1230010B0
:1020A000B1230010B1230010B1230010B1230010A0
:1020B000B1230010B1230010B1230010B123001090
:1020C000B1230010B1230010B1230010B123001080
:1020D000B1230010B1230010B1230010B123001070
:1020E000B1230010B123001000000000B123001044
:1020F000B1230010B1230010B1230010B123001050
:1021000000000000B1230010B1230010B123001023
:10211000B1230010B12300100000000000000000F7
:10212000B1230010B1230010B1230010B12300101F
:10213000B1230010B1230010B1230010B12300100F
:10214000B1230010B1230010B1230010B1230010FF
:10215000B1230010B1230010B1230010B1230010EF
:10216000B1230010B1230010B1230010B1230010DF
:10217000B1230010B1230010B1230010B1230010CF
:10218000B1230010B1230010B1230010B1230010BF
:10219000B1230010B1230010B1230010B1230010AF
:1021A000B1230010B1230010B1230010B12300109F
:1021B000B1230010B1230010B1230010B12300108F
:1021C000B1230010B1230010B1230010B12300107F
:1021D000B1230010B1230010B1230010B12300106F
:1021E000B1230010B1230010B1230010B12300105F
:1021F000B1230010B1230010B1230010B12300104F
:10220000B1230010B1230010B1230010B12300103E
:10221000B1230010B1230010B1230010B12300102E
:10222000B1230010B1230010B1230010B12300101E
:10223000B1230010B1230010B123001000000000F2
:10224000000000000000000000000000B1230010AA
:10225000B1230010B1230010B1230010B1230010EE
:10226000B1230010B1230010B123001000000000C2
:10227000000000000000000000000000000000005E
:102280000000000000000000B1230010000000006A
:10229000000000000000000000000000000000003E
:1022A000000000000000000000000000000000002E
:1022B000000000000000000000000000000000001E
:1022C000B1230010B1230010B1230010B12300107E
:1022D00000000000000000000000000000000000FE
:1022E000B1230010B1230010B1230010B12300105E
:1022F000B1230010B1230010B123001010B5054C1C
:10230000237833B9044B13B10448AFF300800123A1
:10231000237010BD7C2A00080000000020A00110DE
:1023200008B5034B1BB103490348AFF3008008BD58
:1023300000000000802A000820A0011070477047AC
:10234000FFF7FCFF72B6144C144DAC4209DA216859
:102350006268A368043BA2BFC858D050FAE70C34A7
:10236000F3E70F490F4A00209142BCBF41F8040B2C
:10237000FAE70D480D490860BFF34F8F01F0FCFFED
:1023800001F0E0FF03F076F912F0AAFD02F030F858
:1023900012F072FDFEE700002CA0011044A0011015
:1023A0007C2A00081C0101080020000808ED00E05C
:1023B000FEE7FEE700B504207146084202D0EFF3C5
:1023C000098002E0EFF30880043010F01DFEFEE704
:1023D000F0B585B0224981FB0031C217C2EB611113
:1023E000204B83FB0054C2EBA40283FB023CD317B7
:1023F000C3EBAC0303EB8303A2EB430302EB8202C8
:10240000A0EB4200184CCAB234F8122017490A4413
:10241000DBB234F813700F44C0B234F810400C44EF
:10242000002602964FF47845019500921723122258
:102430001821084600F03AFC0296019500971723F0
:10244000122218212A2000F031FC029601950094F6
:102450001723122218213C2000F028FC05B0F0BD03
:102460001F85EB5167666666288401103081011074
:102470002DE9F04385B014462C4BA3FB002C4FEA0A
:10248000DC02944602EB8202A0EB4200C0B2A3FB46
:102490000123DA08154602EB8202A1EB4201C9B220
:1024A000234A32F81CC0234B9C4432F810701F445E
:1024B000968A1E4432F81580984432F81190994457
:1024C000002502950194CDF800C017231222322175
:1024D000C82000F0EBFB029501940097172312220D
:1024E0003221DC2000F0E2FB0295019400961723D4
:1024F00012223221F02000F0D9FB02950194CDF890
:1025000000801723122232214FF4827000F0CEFB9C
:1025100002950194CDF800901723122232214FF436
:102520008C7000F0C3FB05B0BDE8F083CDCCCCCC03
:10253000288401103081011038B50546102012F0B2
:10254000F7FC0446284612F0F3FCE06025810023E6
:1025500023606360204638BD026843689A4201D018
:102560000020704701207047036842689B1A008969
:10257000834214BF00200120704738B504460D4641
:10258000FFF7F2FF60B9E16823682289B3FBF2F03C
:1025900002FB1033CD54236801332360012038BD82
:1025A0000020FCE710B50446FFF7D6FF60B9E168EC
:1025B00063682289B3FBF2F002FB1033C85CC0B23F
:1025C00063680133636010BD0020FCE700B583B091
:1025D0004FF4E1330093FF231A462821292011F0FC
:1025E000B9FF00B101BE03B05DF804FB08B50023DC
:1025F000062201213B2007F0FBFA00B101BE08BD15
:1026000000B585B00523ADF80C300023ADF80830D7
:102610000EE001BE124B1B6898690122032100F5F0
:1026200060700CF0B1F99DF8093013F0010F14D06F
:102630000B4B1B6898690022032100F560700CF0B9
:10264000A3F9002301930222009202AB03A90548DB
:1026500009F016FF0028DDD0DBE705B05DF804FBCC
:10266000FCFE0008642D000810B584B006238DF828
:102670000C3000248DF808400E4B1B6898692246E8
:10268000032100F560700CF07FF9019401220092A3
:1026900002AB03A9084809F0F3FE00B101BE054BE7
:1026A0001B6898690122032100F560700CF06CF939
:1026B00004B010BDFCFE0008642D000810B584B005
:1026C00004238DF80C3000248DF808400E4B1B6855
:1026D00098692246032100F560700CF055F90194C9
:1026E0000122009202AB03A9084809F0C9FE00B11B
:1026F00001BE054B1B6898690122032100F560703B
:102700000CF042F904B010BDFCFE0008642D000876
:1027100010B584B0030A02228DF80C208DF80D301C
:102720008DF80E008DF80F1000240294FFF768FF5B
:10273000FFF79AFF0F4B1B6898692246032100F5AB
:1027400060700CF021F901940422009202AB03A9FD
:10275000094809F095FE00B101BE064B1B68986957
:102760000122032100F560700CF00EF9FFF7A6FFBF
:1027700004B010BDFCFE0008642D000830B585B023
:10278000030A03258DF80C508DF80D308DF80E00DE
:1027900000248DF80F400294FFF732FFFFF764FF2B
:1027A000104B1B6898692246294600F560700CF0B2
:1027B000EBF801940422009202AB03A90A4809F045
:1027C0005FFE00B101BE074B1B689869012203211F
:1027D00000F560700CF0D8F8FFF770FF9DF80B0063
:1027E00005B030BDFCFE0008642D000808B50023CC
:1027F00002220321074807F05DFE08B101BEFEE793
:102800000549044807F0CCFE08B101BEFEE70020F0
:1028100008BD00BF982A0008FC22000808B5012363
:10282000062219463C2007F0E3F908BD08B510F070
:10283000C7FB08BD2DE9F04383B00D46914698468D
:102840005F1C384612F074FB0446384612F070FBE9
:10285000064605F07F05204600F8015B42464946E2
:1028600012F076FBDFF85080D8F80030986900222B
:10287000042100F560700CF087F8002301930097A5
:1028800033463A4621460B4809F0FAFD0546D8F88A
:10289000003098690122042100F560700CF074F892
:1028A000204612F04DFB304612F04AFB284603B09A
:1028B000BDE8F083642D0008FCFE00082DE9F04718
:1028C00082B00F4690461E4603F10109484612F0B9
:1028D0002FFB0546484612F02BFB044667F07F07A6
:1028E000284600F8017B3246002112F03FFBDFF85A
:1028F00060A0DAF8003098690022042100F56070C9
:102900000CF042F800230193CDF8009023464A468C
:1029100029460E4809F0B4FD0746DAF800309869F8
:102920000122042100F560700CF02EF83246611C83
:10293000404612F00DFB284612F002FB204612F032
:10294000FFFA384602B0BDE8F08700BF642D0008EA
:10295000FCFE000830B589B00546264B0493264B93
:102960000593FFF75BFF0F20FFF760FF234C214625
:1029700004A800F0C7FF23786A2B00D0FEE70121EE
:1029800004A800F0C6FF1E4C214604A800F0DAFFA0
:102990002378002BF7D1062104A800F078FF00214E
:1029A00004A800F05BFF022104A801F09DF90121B9
:1029B00004A800F0D6FF012104A801F07CF903A9C6
:1029C00004A801F0E8F89DF80D3043F004038DF8F9
:1029D0000D30039904A800F0DDFF01A904A800F060
:1029E0006FFFBDF904302B80BDF906306B8009B054
:1029F00030BD00BF35280010BD2800104D2B000849
:102A00004C2B000800B585B08DF80D108DF80C002A
:102A10000123019300230093022303AA29210448E0
:102A200007F0D8FD00B101BE05B05DF804FB00BFA2
:102A3000982A000800B585B08DF80D108DF80C00AF
:102A40000123019300230093022303AA20210448B9
:102A500007F0C0FD00B101BE05B05DF804FB00BF8A
:102A6000982A000800B585B08DF80C0000228DF87A
:102A7000082001230193009203AA29210A4807F0A4
:102A8000A9FD00B101BE012301930022009202AA18
:102A90002921054807F0EAFD00B101BE9DF80800B4
:102AA00005B05DF804FB00BF982A000808B5014690
:102AB0008020FFF7A7FF08BD08B501468520FFF776
:102AC000A1FF08BD08B501460120FFF7B3FF08BD0F
:102AD00008B501460320FFF7ADFF08BDF0B59C46E1
:102AE000394C0126C4F884600223C4F88430374F7F
:102AF0002A253D600425C4F88450C4F88850C4F8E1
:102B00008830C4F888604FEA102EC0B2C4F88460E0
:102B1000C7F800E0C4F88450C4F888503860C4F89E
:102B20008450C4F88850C4F88860080AC9B2C4F850
:102B300084603860C4F88450C4F888503960C4F8A0
:102B40008450C4F88850C4F88860C4F88460C4F81D
:102B500084302B213960C4F88450C4F88850C4F8FC
:102B60008830C4F88860110AD2B2C4F88460396031
:102B7000C4F88450C4F888503A60C4F88450C4F84B
:102B80008850C4F888604FEA1C215FFA8CF2C4F8C0
:102B900084603960C4F88450C4F888503A60C4F83E
:102BA0008450C4F88850C4F88860C4F88460C4F8BD
:102BB00084302C223A60C4F88450C4F88850C4F899
:102BC0008830C4F88860F0BD000031400001314019
:102BD00070B50446EF23002240F23F111046FFF784
:102BE0007DFF4FF0000C1CE0210AE0B2104B0125E4
:102BF000C3F884500F4E31600421C3F88410C3F829
:102C000088103060C3F88410C3F88810C3F8885067
:102C10002A4492B2B2F5A07FE6D30CF1010C1FFA60
:102C20008CFCBCF1EF0F01D80022F3E770BD00BFB0
:102C300000003140000131402DE9F0410D46984639
:102C4000BDF81840411889B2D3189BB2013B013935
:102C50009BB289B2FFF742FF4FF0000E1BE0230A40
:102C6000E1B2104A0127C2F884700F4E336004238A
:102C7000C2F88430C2F888303160C2F88430C2F8BB
:102C80008830C2F88870384480B2A842E7D30EF189
:102C9000010E1FFA8EFEC64501D20020F5E7BDE801
:102CA000F08100BF00003140000131402DE9F84FB4
:102CB00086468C4615469946DDF82880BDF82C706E
:102CC000BDF830600024A0EB520080B20EEB520140
:102CD00089B212F0010F01D1013989B2ACEB59026E
:102CE00092B20CEB59039BB219F0010F01D1013BD9
:102CF0009BB2FFF7F3FE4FEAD50C15F0070F01D09A
:102D00000CF1010C002249E014F0800F2AD1330AA3
:102D10005FFA86FE24484FF0010AC0F884A0DFF86D
:102D20008CB0CBF800300423C0F88430C0F8883071
:102D3000CBF800E0C0F88430C0F88830C0F888A034
:102D40006400E4B2013189B2A94225D211F0070F23
:102D5000DAD112FB0CF3C80810FA83F39BB218F80F
:102D60000340D1E7380A5FFA87FE0F4B4FF0010AA4
:102D7000C3F884A0DFF834B0CBF800000420C3F817
:102D80008400C3F88800CBF800E0C3F88400C3F8DF
:102D90008800C3F888A0D3E7013292B24A4501D235
:102DA0000021D1E7BDE8F88F00003140000131403B
:102DB0002DE9F843EA4C0125C4F884504FF002088D
:102DC000C4F88480E74F3D600426C4F88460C4F8EA
:102DD0008860C4F88880C4F88850322010F0F0F879
:102DE000C4F88450C4F884804FF01109C7F80090EB
:102DF000C4F88460C4F88860C4F88880C4F8885037
:102E0000782010F0DDF8C4F88450C4F88480CF2313
:102E10003B60C4F88460C4F88860C4F88880C4F853
:102E20008850C4F8845000233B60C4F88460C4F820
:102E30008860C4F88850C4F8845083223A60C4F88B
:102E40008460C4F88860C4F88850C4F88450302284
:102E50003A60C4F88460C4F88860C4F88850C4F844
:102E60008450C4F88480ED223A60C4F88460C4F8C9
:102E70008860C4F88880C4F88850C4F884506422FC
:102E80003A60C4F88460C4F88860C4F88850C4F814
:102E9000845003223A60C4F88460C4F88860C4F89F
:102EA0008850C4F8845012223A60C4F88460C4F890
:102EB0008860C4F88850C4F8845081223A60C4F80D
:102EC0008460C4F88860C4F88850C4F88450C4F89A
:102ED0008480E8223A60C4F88460C4F88860C4F84A
:102EE0008880C4F88850C4F8845085223A60C4F8B9
:102EF0008460C4F88860C4F88850C4F884503D6089
:102F0000C4F88460C4F88860C4F88850C4F8845059
:102F100079223A60C4F88460C4F88860C4F88850A4
:102F2000C4F88450C4F88480CB223A60C4F884602A
:102F3000C4F88860C4F88880C4F88850C4F8845005
:102F400039223A60C4F88460C4F88860C4F88850B4
:102F5000C4F884502C223A60C4F88460C4F88860B5
:102F6000C4F88850C4F884503B60C4F88460C4F846
:102F70008860C4F88850C4F8845034223A60C4F899
:102F80008460C4F88860C4F88850C4F88450C7F8D6
:102F90000080C4F88460C4F88860C4F88850C4F81D
:102FA0008450C4F88480F7213960C4F88460C4F880
:102FB0008860C4F88880C4F88850C4F88450202100
:102FC0003960C4F88460C4F88860C4F88850C4F8D4
:102FD0008450C4F88480EA213960C4F88460C4F85D
:102FE0008860C4F88880C4F88850C4F884503B6076
:102FF000C4F88460C4F88860C4F88850C4F8845069
:103000003B60C4F88460C4F88860C4F88850C4F891
:103010008450C4F88480C1213960C4F88460C4F845
:103020008860C4F88880C4F88850C4F88450C7F811
:103030000090C4F88460C4F88860C4F88850C4F86C
:103040008450C4F88480C5213960C4F88460C4F811
:103050008860C4F88880C4F88850C4F884503A6006
:10306000C4F88460C4F88860C4F88850C4F88450F8
:103070003D223A60C4F88460C4F88860C4F888507F
:10308000C4F88450C4F88480C7223A60C4F88460CD
:10309000C4F88860C4F88880C4F88850C4F88450A4
:1030A000C0223A60C4F88460C4F88860C4F88850CC
:1030B000C4F88450C4F8848036223A60C4F884602E
:1030C000C4F88860C4F88880C4F88850C4F8845074
:1030D00068223A60C4F88460C4F88860C4F88850F4
:1030E000C4F88450C4F884803A223A60C4F88460FA
:1030F000C4F88860C4F88880C4F88850C4F8845044
:1031000055223A60C4F88460C4F88860C4F88850D6
:10311000C4F88450C4F88480B1223A60C4F8846052
:10312000C4F88860C4F88880C4F88850C4F8845013
:103130003B60C4F88460C4F88860C4F88850C4F860
:1031400084501D223A60C4F88460C4F88860C4F8D2
:103150008850C4F88450C4F88480B62104E000BFCD
:1031600000003140000131403960C4F88460C4F887
:103170008860C4F88880C4F88850C4F884500A2253
:103180003A60C4F88460C4F88860C4F88850C4F811
:103190008450A2203860C4F88460C4F88860C4F801
:1031A0008850C4F8845027203860C4F88460C4F87C
:1031B0008860C4F88850C4F884503B60C4F88460C8
:1031C000C4F88860C4F88850C4F88450C4F8848077
:1031D000B7233B60C4F88460C4F88860C4F8888072
:1031E000C4F88850C4F8845007233B60C4F8846056
:1031F000C4F88860C4F88850C4F88450C4F8848047
:103200003960C4F88460C4F88860C4F88880C4F861
:103210008850C4F8845008233B60C4F88460C4F824
:103220008860C4F88850C4F88450C4F88480262389
:103230003B60C4F88460C4F88860C4F88880C4F82F
:103240008850C4F884503D60C4F88460C4F8886035
:10325000C4F88850C4F88450C4F88480E0233B60EC
:10326000C4F88460C4F88860C4F88880C4F88850C2
:10327000C4F884501F233B60C4F88460C4F888609D
:10328000C4F88850C4F884501A233B60C4F88460A2
:10329000C4F88860C4F88850C4F8845018233B6090
:1032A000C4F88460C4F88860C4F88850C4F88450B6
:1032B0003A60C4F88460C4F88860C4F88850C4F8E0
:1032C00084500F233B60C4F88460C4F88860C4F85D
:1032D0008850C4F8845006233B60C4F88460C4F866
:1032E0008860C4F88850C4F8845045233B60C4F813
:1032F0008460C4F88860C4F88850C4F88450872378
:103300003B60C4F88460C4F88860C4F88850C4F88E
:1033100084504FF03209C7F80090C4F88460C4F8B4
:103320008860C4F88850C4F884503A60C4F8846057
:10333000C4F88860C4F88850C4F8845007233B6000
:10334000C4F88460C4F88860C4F88850C4F8845015
:10335000C7F80080C4F88460C4F88860C4F8885056
:10336000C4F884503B60C4F88460C4F88860C4F832
:103370008850C4F8845005233B60C4F88460C4F8C6
:103380008860C4F88850C4F8845000223A60C4F8B9
:103390008460C4F88860C4F88850C4F88450C4F8C5
:1033A0008480E1213960C4F88460C4F88860C4F87E
:1033B0008880C4F88850C4F884503A60C4F88460A7
:1033C000C4F88860C4F88850C4F8845025223A6054
:1033D000C4F88460C4F88860C4F88850C4F8845085
:1033E0003860C4F88460C4F88860C4F88850C4F8B1
:1033F00084503B60C4F88460C4F88860C4F8885086
:10340000C4F8845010223A60C4F88460C4F888601C
:10341000C4F88850C4F8845009223A60C4F8846023
:10342000C4F88860C4F88850C4F884503A223A60DE
:10343000C4F88460C4F88860C4F88850C4F8845024
:1034400078203860C4F88460C4F88860C4F8885074
:10345000C4F884504D213960C4F88460C4F8886091
:10346000C4F88850C4F884503B60C4F88460C4F841
:103470008860C4F88850C4F8845018233B60C4F8AE
:103480008460C4F88860C4F88850C4F884500D2360
:103490003B60C4F88460C4F88860C4F88850C4F8FD
:1034A000845038233B60C4F88460C4F88860C4F852
:1034B0008850C4F884503A60C4F88460C4F88860C6
:1034C000C4F88850C4F884501F233B60C4F884605B
:1034D000C4F88860C4F88850C4F88450C4F8848064
:1034E00011233B60C4F88460C4F88860C4F8888005
:1034F000C4F888500FF064FDC4F88450C4F8848088
:1035000029233B60C4F88460C4F88860C4F88880CC
:10351000C4F8885048460FF053FDBDE8F88300BF5B
:1035200008B5012306221946082006F061FB00B108
:1035300008BD012306221946092006F059FB002880
:10354000F6D10123062219460A2006F051FB002875
:10355000EED1012306221946102006F049FB00286F
:10356000E6D1012306221946112006F041FB00286E
:10357000DED1012306221946122006F039FB00286D
:10358000D6D1012306221946132006F031FB00286C
:10359000CED1012306221946142006F029FB00286B
:1035A000C6D1012306221946152006F021FB00286A
:1035B000BED1012306221946162006F019FB002869
:1035C000B6D1012306221946172006F011FBAFE7FA
:1035D00008B5FFF7A5FF00B108BDFFF7E9FB002024
:1035E000FFF7F6FAF8E708B500231A461946332024
:1035F00006F0FEFA00B101BE00231A461946342037
:1036000006F0F6FA00B101BE00231A46194635202D
:1036100006F0EEFA00B101BE08BD0000544B1B6974
:1036200013F0080F49D1534A0121117013F0100F04
:1036300047D1514A0121117013F0200F45D14F4B52
:1036400001221A704D4B1B781BB94D4A1278002A83
:103650003FD1494A12781AB94A490978002944D118
:103660004449097819B948480078002847D11BB166
:103670004348007800284AD01AB142480078002810
:103680004DD019B140480078002850D01BB13C48BB
:103690000078002853D11AB13A480078002856D152
:1036A00019B139480078002859D137480170354997
:1036B0000A70334A1370002070472E4A002111709F
:1036C000B4E72D4A00211170B6E72C4B00221A7086
:1036D000B8E7284A11782C4A1170274A1178294AEC
:1036E0001170274A1370062070472249087826492E
:1036F000087024490A70224A137005207047224836
:10370000017020490A701E4A1370042070471E4839
:1037100001701C490A701A4A1370032070471A4836
:10372000017018490A70164A137002207047164833
:10373000017014490A70124A137001207047124830
:10374000017010490A700E4A1370032070470E482A
:1037500001700C490A700A4A1370022070470A4827
:10376000017008490A70064A13700120704700BFB3
:10377000000331404E2B0008502B0008522B00084C
:10378000532B0008512B00084F2B000800B583B0C5
:1037900000225621104805F0D9F900B101BE0F49A9
:1037A0000D4804F083FE00B101BE0D4B0093FF23D2
:1037B000562209490B4804F08DFF00B101BE084BA9
:1037C0000093FF2357220449074804F083FF00B108
:1037D00001BE03B05DF804FB6C2B000848840110A7
:1037E00040840110542B0008602B000830B583B0D2
:1037F0000023ADF80430ADF800300120FFF756F992
:103800001220FFF759F98A20FFF72CF904468DF8AA
:1038100004008B20FFF726F905468DF80500882067
:10382000FFF720F98DF800008920FFF71BF98DF8CC
:10383000010044EA05248C20FFF714F910F0040F6E
:10384000DBD1204603B030BD10B54468C068A04746
:1038500010BD10B50468C068A04710BD30B583B076
:1038600004460D46012301AA1021FFF7EDFF08B120
:1038700003B030BD9DF8043065F383038DF8043048
:10388000012301AA10212046FFF7E3FFF0E730B53E
:1038900083B004460D46012301AA1021FFF7D4FF8F
:1038A00008B103B030BD9DF8043065F307138DF8FF
:1038B0000430012301AA10212046FFF7CAFFF0E7D8
:1038C00010B582B00C4606236A462821FFF7BCFFDC
:1038D0009DF8012022809DF8003003EB0223238015
:1038E0009DF8032062809DF8023003EB0223638081
:1038F0009DF80520A2809DF8043003EB0223A380ED
:1039000002B010BD08B50A4601230F21FFF79CFF46
:1039100008BD30B583B004460D46012301AA12212B
:10392000FFF792FF08B103B030BD9DF8043065F396
:1039300000038DF80430012301AA12212046FFF76D
:1039400088FFF0E710B582B00C46012301AA1221CE
:10395000FFF77AFF9DF80430C3F30003237002B031
:1039600010BD30B583B004460D46012301AA58218D
:10397000FFF76AFF08B103B030BD9DF8043065F36E
:1039800004138DF80430012301AA58212046FFF7C3
:1039900060FFF0E710B588B004460191012306AA44
:1039A0000D21FFF751FFC8B1002856D000285BD089
:1039B000002860D0002800F09D80002800F0A18041
:1039C000002800F0AD80002800F0B180002800F051
:1039D000BD80002800F0D88008B010BD9DF80430EC
:1039E0009DF8182063F300028DF81820C3F34001FE
:1039F000D2B261F341028DF81820C3F38001D2B234
:103A000061F382028DF81820C3F3C001D2B261F3D2
:103A1000C3028DF81820C3F30011D2B261F304126F
:103A20008DF81820C3F34011D2B261F345128DF81E
:103A30001820C3F38011D2B261F386128DF81820DA
:103A4000DB09D2B263F3C7128DF81820012306AA4E
:103A50000D212046FFF7FDFEA6E7012305AA5E2102
:103A60002046FFF7F1FEA1E7012304AA5F212046CB
:103A7000FFF7EAFE9CE79DF805309DF8142063F3FC
:103A800000028DF81420C3F34001D2B261F3410269
:103A90008DF81420C3F38001D2B261F382028DF855
:103AA0001420C3F3C001D2B261F3C3028DF8142015
:103AB000C3F30011D2B261F304128DF81420C3F3E2
:103AC0004011D2B261F345128DF81420C3F3801176
:103AD000D2B261F386128DF81420DB09D2B263F3FF
:103AE000C7128DF81420012305AA5E212046FFF796
:103AF000B0FE5FE7012303AA13212046FFF7A4FECF
:103B00005BE79DF806209DF80C3062F304138DF8F6
:103B10000C30012303AA13212046FFF79AFE4FE73A
:103B2000012307AA1A212046FFF78EFE4BE79DF8D6
:103B300006209DF81C3062F3C7138DF81C3001235A
:103B400007AA1A212046FFF784FE3FE7012302AAB5
:103B500058212046FFF778FE9DF8053013F0FC0F42
:103B600004D19DF8103013F0FC0F06D09DF80830FA
:103B700043F080038DF808302BE79DF808306FF391
:103B8000C7138DF8083024E7012302AA58212046E4
:103B9000FFF75FFE20E730B585B005460C460123F0
:103BA00002AA0D21FFF750FE08B105B030BD9DF807
:103BB0000830227863F300022270C3F34001D2B2CE
:103BC00061F341022270C3F38001D2B261F3820239
:103BD0002270C3F3C001D2B261F3C3022270C3F3F7
:103BE0000011D2B261F304122270C3F34011D2B2B9
:103BF00061F345122270C3F38011D2B261F38612D1
:103C00002270DB09D2B263F3C7122270012301AA2A
:103C10005E212846FFF718FE0028C6D19DF8043023
:103C2000627863F300026270C3F34001D2B261F3C1
:103C300041026270C3F38001D2B261F3820262700A
:103C4000C3F3C001D2B261F3C3026270C3F30011C7
:103C5000D2B261F304126270C3F34011D2B261F3C5
:103C600045126270C3F38011D2B261F386126270A2
:103C7000DB09D2B263F3C712627001236A461321D3
:103C80002846FFF7E1FD00288FD19DF80030C3F3EF
:103C90000013A27863F30002A270012303AA1A2181
:103CA0002846FFF7D1FD9DF80C30DB09A27863F3BD
:103CB0000002A27079E730B583B004460D460123B7
:103CC00001AA1721FFF7C0FD08B103B030BD9DF870
:103CD000043065F300038DF80430012301AA172195
:103CE0002046FFF7B6FDF0E730B583B004460D4639
:103CF000012301AA5921FFF7A7FD08B103B030BD88
:103D00009DF8043065F346138DF80430012301AAB1
:103D100059212046FFF79DFDF0E7000000B585B072
:103D2000002303930293019301220092FF22322188
:103D3000024807F0EDF905B05DF804FB602C0008BF
:103D400010B5054C40F6C4120449204607F0A2FA0B
:103D5000204607F0E7FA10BD602C0008000048423A
:103D600008B5024807F0FEFA08BD00BF602C000845
:103D700011F0080F0DD108B511F0800F03D111F427
:103D8000807F03D108BD00F0B3F8FBE700F026F90F
:103D9000F8E7704710B5044620B906E0034809F07B
:103DA000F9FD013421780029F8D110BDA02C0008BC
:103DB00070B582B0044601220DF10701134809F0E5
:103DC000C3FD00BB124B1B789DF807201149CA5454
:103DD0000A2A06D00D2A04D001330D4A13700020A0
:103DE00012E00C4D0026EE542946204611F05DFFEE
:103DF000074B1E702E606E60AE60EE60064811F0DC
:103E00008FFE012000E0002002B070BDA02C000851
:103E10009C2C0008482D00088084011008B5002261
:103E20000449054809F0F0FD00F050F800F0C2F830
:103E300008BD00BF713D0010A02C000800B585B082
:103E40000D4B029300230193FF23009318221921A5
:103E50000A4809F0C7FF00B101BE094A4FF4E13139
:103E6000064809F005FD00B101BE044809F0A4FDB3
:103E700005B05DF804FB00BF88840110A02C000889
:103E8000982C0008D8B170B50E4605460E4B186840
:103E9000FEF762FBA8B972B60024A6420CDD0A4BFD
:103EA0001868FEF759FB38B9074B1868FEF77AFB1C
:103EB00005F8010B0134F0E762B6012070BD002067
:103EC00070470020FAE700BF5C2D000808B54FF4EA
:103ED0008070FEF731FB044B186001230322802120
:103EE000024809F0A5FD08BD5C2D0008A02C0008C3
:103EF00000B583B000238DF8073001220DF10701D2
:103F00000A4809F021FD48B99DF807100A2908D090
:103F10000D2906D0064B1868FEF72FFB03B05DF89D
:103F200004FB044B01221A70F8E700BFA02C000824
:103F30005C2D0008582D000810B504460A4B18687F
:103F4000FEF712FB0028F9D172B62146064B18681D
:103F5000FEF713FB62B6012303224FF4807103487E
:103F600009F066FD10BD00BF602D0008A02C000800
:103F7000D8B110B5044672B60BE00C4B1868FEF7CA
:103F8000F3FA0028F9D114F8011B084B1868FEF762
:103F9000F4FA2378002BF0D162B6012303224FF408
:103FA0008071034809F044FD10BD7047602D000882
:103FB000A02C000808B54FF48070FEF7BDFA054B41
:103FC0001860002303224FF48071034809F030FD8C
:103FD00008BD00BF602D0008A02C000808B50B4BE1
:103FE0001868FEF7B9FA38B1002303224FF4807144
:103FF000074809F01DFD08BD044B1868FEF7D2FA0A
:104000000146034809F0C6FCF5E700BF602D000833
:10401000A02C000810B586B00D4C7022002120465F
:1040200010F0A4FF0023049303930822029201934B
:10403000FF2300933A2339223821204608F034F92F
:1040400008B106B010BD0349204607F0F1FDF8E7BE
:10405000642D000840420F00F0B583B005460C46C1
:104060001F4600268E60013A4A604E708E70012312
:104070000B70CE603246FF2109F02AF800B101BE74
:104080002146284609F07EF800B101BE0D492846B8
:1040900008F082FF00B101BE05F108040022394694
:1040A000204608F07DFD0122009203232146284688
:1040B00008F0B6FD284609F035F800B101BE03B09E
:1040C000F0BD00BF00E1F50508B500F039F800F0DB
:1040D00003F800F015F808BD08B5002108460DF0FA
:1040E000EDFFFF22002108460DF05CFE002108468E
:1040F0000DF0A2FF014805F003FF08BD9C840110EC
:1041000010B5094C094A062120460AF0D9FC084896
:1041100005F0F6FE074A072120460AF0D1FC0648C2
:1041200005F0EEFE10BD00BF00033140D884011041
:104130000C850110A0840110D4840110FEE700005A
:1041400010B5962100200EF0B1FF01200FF004FD04
:104150000FF0AAFC0FF084FD0FF06EFD0021084661
:104160000EF03AF900200EF0A5F801200EF08AF8C2
:1041700000200EF01FF84A4B1B6893F83F4003E005
:1041800020460EF09FFB013C002CF9D100210120BC
:104190000EF0A8F900200EF00DF9002869D00EF0FD
:1041A00055FA002108460EF09DF9002108460EF050
:1041B000E1F800200EF07EF800200EF063F80020F9
:1041C0000DF0F8FF002101200EF08CF900210846C7
:1041D0000EF088F9002102200EF084F9002103205E
:1041E0000EF080F9002104200EF07CF92D480EF02D
:1041F00047FA002848D12C480EF0F2FA002846D1A0
:10420000002108460EF0B6F8002108460EF0E4F84A
:10421000264901200EF07CFB00283BD142F21071B0
:1042200001200EF003FCC0BB0EF00AF800200DF0D8
:10423000DBFF00200DF0EEFF0DF0F8FF6421002001
:104240000EF034FF00F044F80EF004F900200EF0F8
:1042500015F9174805F054FE164805F051FE1648AA
:1042600005F04EFE154805F04BFE154805F048FEDA
:1042700010BD0EF065F940F2111398428FD1012163
:1042800000200EF077F88AE70420FFF757FF04209C
:10429000FFF754FF0320FFF751FF0320FFF74EFF06
:1042A000FCFE000810850110400D03003885011048
:1042B00024850110288501102C85011030850110FE
:1042C0003485011008B501200AF03AFE08BD704798
:1042D00010B500200EF0B4FD00B910BD0446114B1E
:1042E00018600DF0DDFF0130B4FBF0F00E4B1860EC
:1042F0000DF0EEFF0130B4FBF0F40C4B1C60013C00
:104300000B4BA3FB04239B0C01330A4A13700A4B8B
:10431000A3FB04239B090133084A1360DB03084A0B
:104320001360DAE7082300080C23000804230008C0
:1043300083DE1B4318230008D34D621014230008AA
:104340001023000808B5094809F038FFFFF7BFFF40
:10435000FFF7BEFF0022114603200AF047FE044883
:104360000AF0A8FC03480AF0FDFC08BD549B0110AC
:10437000D42D000840850110EFF3108172B6074A72
:10438000D2F8883043F47003C2F88830BFF34F8FFF
:10439000BFF36F8F81F31088704700BF00ED00E01E
:1043A00008B504480FF004F808B1002008BD024821
:1043B000FCE700BF1C2300080000020610B505F052
:1043C0009DFD044628B144B1FFF77EFE5CB1204656
:1043D00010BD08F0E9F90446F5E740F6E441002095
:1043E00008F094FAF0E7FFF7DBFF0446EFE7000080
:1043F00010B5FFF7E3FF00B101BEFEF7E7F862B6C4
:104400000D4811F007FB0D4C204611F003FB0C4941
:104410000C4811F0FFFA0C490C4811F0FBFA0C495A
:104420000C4811F0F7FA204611F0F4FA00F062F8A7
:1044300000F08EF8FEE700BF748501108085011042
:104440003C230008B8850110C0850110CC850110FF
:10445000DC850110E885011000B585B000230293CA
:104460004FF6E0730193064B0093064B1B78064A08
:1044700012787821A020FEF719FC05B05DF804FB46
:10448000008A0110288C0110298C011000B585B01C
:10449000002302934FF6E0730193064B0093064B03
:1044A0001B78064A12787821A020FEF7FFFB05B0A2
:1044B0005DF804FBF8850110C6870110C78701105D
:1044C00000B585B0002302934FF6E0730193064BCD
:1044D0000093064B1B78064A12787821A020FEF73D
:1044E000E5FB05B05DF804FBC8870110FC890110ED
:1044F000FD89011008B5FFF749F9FFF774F8FFF7D8
:1045000067F8FFF79BFCFEF771F908BD10B582B0A4
:104510000E4C23880093402300224FF4A0711046D4
:10452000FEF78AFB23880093F02300221021104617
:10453000FEF782FB23880093F023002210214FF422
:104540009870FEF779FB02B010BD00BF3823000859
:1045500010B582B0FFF74AF984B20D21224809F064
:1045600019FA642C1BD8214B40F2FF721A60FFF736
:10457000CDFFFFF753F8042816D06846FFF718FC64
:104580000028F6D09DF800306F2BF2D10023ADF853
:104590000030174B02221A601F225A6010E0134BA2
:1045A0004FF6E0721A60E2E7114B01221A606F23A6
:1045B0008DF804300A238DF8053001A8FFF7EAFBD7
:1045C00000F0FAF800F032F800F048F900F02EFFA1
:1045D00000F09CFEFEF70AF8FFF71CFD00F03EFE1F
:1045E00002F054FAFEE700BF640001083823000817
:1045F000682F0008FEE7FEE700B583B000238DF8C2
:104600000730052002F046FCFFF708F88DF8070098
:104610000028F6D000234FF0FF320DF107010248C9
:10462000006801F049FCECE7602F000800B583B09A
:1046300000220121084602F091F8074B1860002380
:1046400001930522009280220449054802F0E6F910
:1046500003B05DF804FB00BF602F00082C8C011034
:10466000F945001000B583B000238DF8073008E04D
:1046700000234FF0FF320DF107014C48006801F0B4
:104680001BFC6846FEF766F9BDF9003040F6AC52F7
:10469000934218DD02228DF8072041F288329342BE
:1046A000E6DD424C00234FF0FF320DF10701206898
:1046B00001F002FC00234FF0FF320DF107012068EA
:1046C00001F0FAFBD4E73A4A934221DA01228DF84D
:1046D0000720384A934209DB00234FF0FF320DF1E7
:1046E00007013248006801F0E7FBCAE72F4C0023BE
:1046F0004FF0FF320DF10701206801F0DDFB0023D0
:104700004FF0FF320DF10701206801F0D5FBE3E720
:10471000BDF90230264A934221DA03228DF80720A0
:10472000244A934209DB00234FF0FF320DF10701C9
:104730001E48006801F0C0FBA3E71C4C00234FF0AB
:10474000FF320DF10701206801F0B6FB00234FF0A6
:10475000FF320DF10701206801F0AEFBE3E740F600
:10476000AC5293428DDD04228DF8072041F288324D
:10477000934209DC00234FF0FF320DF107010B4893
:10478000006801F099FB7CE7084C00234FF0FF32F2
:104790000DF10701206801F08FFB00234FF0FF327D
:1047A0000DF10701206801F087FBE3E75C2F0008AB
:1047B00054F2FFFF78ECFFFF00B583B00022012127
:1047C000084601F0CBFF074B18600023019302223B
:1047D000009280220449054802F020F903B05DF8F8
:1047E00004FB00BF5C2F0008348C011065460010EC
:1047F00000B583B00021019101AA094B186803F0AC
:1048000031F9019B4BB14FF0E0234FF08052C3F8D8
:10481000042DBFF34F8FBFF36F8F03B05DF804FB20
:104820003C30000808B54FF0FF320121002003F0B2
:10483000C5F8FFF795FAF6E708B50649064B0B6091
:10484000352005F041FA012303220221352005F02D
:1048500061FA08BD4C300008F147001030B583B054
:10486000FFF75CFAFFF7E8FF0024019403250095A9
:1048700023464FF420720749074802F0CFF8074B50
:1048800001930095234680220549064802F0C6F8A8
:1048900003B030BD408C0110E94900103C300008E5
:1048A000448C011025480010204A82FB0032C317B7
:1048B000C3EBA20303EB8303B0EB430306D1302326
:1048C0004B7009282FDD31230B707047012B12D05C
:1048D000022B13D0032B14D0042B15D0052B16D08C
:1048E000062B17D0072B18D0082B19D0092BE8D18D
:1048F00039234B70E5E731234B70E2E732234B70ED
:10490000DFE733234B70DCE734234B70D9E73523E3
:104910004B70D6E736234B70D3E737234B70D0E785
:1049200038234B70CDE730230B707047676666669F
:1049300070B505460A4B1888FDF720FF0446064669
:104940000146084811F066F8AC4201DB304670BD04
:10495000E9B2034B1888FDF7DBFE2E46F6E700BFF1
:1049600062230008488C011038B500200546044633
:1049700012E001340BE001330A2B0CDC00EB800267
:1049800000EB4201154A0A44D25C032AF1D0042A02
:10499000F1D10135EFE70130112801DC0023EBE70D
:1049A0002A4621460E4811F035F8AC4208D0AC42F8
:1049B0000DDD2046FFF7BCFF0A4B1860012038BD13
:1049C0002046FFF7B5FF074B18600020F7E72846A1
:1049D000FFF7AEFF034B18600220F0E7742F0008CA
:1049E000588C0110443000082DE9F0479EB0B04BC0
:1049F00014221A60AF4B1888FDF7C0FEAE4A106053
:104A0000AE4A1060FDF7E4FCAD4B1B68012B3DD0B6
:104A1000022B53D000228DF82320AA4A01211170C5
:104A20008B4263D0A84B1E78A84B1F784FF0000A2A
:104A3000CDF808A01F230193DFF8B092CDF80090C5
:104A40003B463246BDF87010BDF86800FEF72EF9FF
:104A50009F4C0B25199B05FB03431B9A042199547A
:104A6000CDF808A04FF478430193CDF800903B4671
:104A70003246BDF85C10BDF85400FEF717F9149BE0
:104A800005FB0344169B0322E25478E001261996A5
:104A900028251A9505211B9198221C921024149404
:104AA0004FF48C701590169117920A960B950C91F5
:104AB0000D920F94109011911292A9E7012614966D
:104AC00028251595052116919822179210241994DE
:104AD0004FF48C701A901B911C920F9610951191A7
:104AE00012920A940B900C910D9293E7764B1E78DC
:104AF000764B1F784FF0000ACDF808A04FF47843AA
:104B00000193DFF8E891CDF800903B463246BDF8BE
:104B10007010BDF86800FEF7C9F86D4C0B25199BA5
:104B200005FB03431B9A03219954CDF808A01F23CA
:104B30000193CDF800903B463246BDF85C10BDF8BD
:104B40005400FEF7B3F8149B05FB0344169B0422A4
:104B5000E25414E0002E00F0D0800999B1F1FF3F3B
:104B600000F0CB80002940F0C3804FF4FC620020AD
:104B7000FDF77EFC534B02221A70FFF7E1F8052285
:104B800014A9544B186801F067FB044605220DF187
:104B90002301514B186801F05FFB0746052209A964
:104BA0004E4B186801F058FB064605220DF1220114
:104BB0004B4B186801F050FB0546424B1B78012B0C
:104BC000C8D0484B1B68002B40F0AC81B8F1000FF7
:104BD00000F0AF81B8F1010F00F0AE81FFF756FC95
:104BE00025B19DF82230052B00F0B881002CC6D0ED
:104BF000189BB3F1FF3FC2D101243A4B1C602C4BF0
:104C000014221A60384810F08BFF0020FDF7E0FFF7
:104C1000FFF77CFC2B4B1C70C6224FF0FF312C4859
:104C200010F0A4F9254B1868FDF7D2FB244B1B6844
:104C3000A34200F06082022B00F07582012B00F08D
:104C40008A82214B1D78214B1E784FF00009CDF848
:104C500008901F230193254F009733462A46BDF83D
:104C60007010BDF86800FEF721F8199B184C03EB93
:104C7000830203EB420323441B9A04219954CDF889
:104C800008904FF478430193009733462A46BDF8C5
:104C90005C10BDF85400FEF709F8149B03EB830287
:104CA00003EB42032344169A0321995467E700BF9C
:104CB00068230008622300084030000844300008E0
:104CC000682F0008483000087D8401107C840110A2
:104CD000742F0008642F00085C2F0008702F000854
:104CE000602F000864230008748C01105C8401109C
:104CF0004FF4FC620020FDF7BBFB002C32D0189B68
:104D0000002B2FD08E4B1B68012B4CD0129A083AE7
:104D1000109808384FF478440094102392B2194642
:104D200080B2FDF789FF002302930194854B009325
:104D3000854B1B78854A1278BDF85C10BDF854008D
:104D4000FDF7B4FF159B1093179B129316991191C1
:104D5000149B0F9303EB830203EB42037C4A13443F
:104D600003225A54002F3FF40AAF9DF82330002B42
:104D70003FF405AF724B1B68012B40D01C9A083AD8
:104D80001A9808381F230093102392B2194680B254
:104D9000FDF752FF9DF82330013B032B45D8DFE898
:104DA00003F08C3C959E129A083A109808381F24FC
:104DB0000094102392B2194680B2FDF73DFF002304
:104DC000029301945F4B00935F4B1B785F4A12780C
:104DD000BDF85C10BDF85400FDF768FF159B1093FB
:104DE000179B129316991191149B0F9303EB830257
:104DF00003EB4203564A134404225A54B2E71C9A66
:104E0000083A1A9808384FF478430093102392B266
:104E1000194680B2FDF710FFBCE7199B002B04DD9B
:104E2000013B19931A9B103B1A93199C05A9204624
:104E3000FFF73AFD00238DF81A301B9D06A928467E
:104E4000FFF732FD9DF814308DF81C309DF81530B9
:104E50008DF81D309DF818308DF81E309DF81930F2
:104E60008DF81F309DF81A308DF8203007A9394889
:104E700010F0D0FD07A8FFF77BF80A20FFF75CF8D9
:104E80002F4B1B68012B33D0002302931F23019368
:104E90002C4B00932C4B1B782C4A1278BDF87010C9
:104EA000BDF86800FDF702FF04EB840304EB430444
:104EB000274B1C440423635561E6199B102BB4DC7B
:104EC000013319931A9B10331A93AEE71B9B002BE7
:104ED000ABDD013B1B931C9B103B1C93A5E71B9B6D
:104EE000092BA2DC01331B931C9B10331C939CE702
:104EF000002302934FF478430193124B0093124B1B
:104F00001B78124A1278BDF87010BDF86800FDF7E2
:104F1000CDFE04EB840304EB43030D4C1C4403233C
:104F200063552CE6FFF720FD80460B4B00221A60EC
:104F30004CE6FFF7C5FA53E6FFF78EFA50E600BFDE
:104F4000682F00085C8401107C8401107D840110AE
:104F5000742F00086C8C0110642300080125994B04
:104F60001D60994B14221A60984B93E80300079038
:104F70008DF8201007A8FEF7FBFF0A20FEF7DCFFE4
:104F80000020FDF725FEFFF7C1FA914B1D70C622E8
:104F90004FF0FF318F480FF0E9FF8F4B1868FDF796
:104FA00017FA8E4B1B68AB423CD0022B52D0012B20
:104FB00068D08B4B1E788B4B1F784FF0000ACDF8D2
:104FC00008A01F230193DFF82092CDF800903B4604
:104FD0003246BDF87010BDF86800FDF767FE199BFA
:104FE0007C4D03EB830203EB42032B441B9A042109
:104FF0009954CDF808A04FF478430193CDF8009070
:105000003B463246BDF85C10BDF85400FDF74EFE3D
:10501000149B03EB830203EB42032B44169A0321F8
:105020009954E3E52F46199528261A9605211B91D8
:1050300098221C92102514954FF48C70159016919F
:1050400017920A970B960C910D920F951090119153
:105050001292AAE701271497282615960521169182
:1050600098221792102519954FF48C701A901B9165
:105070001C920F971096119112920A950B900C9119
:105080000D9294E7564B1E78564B1F784FF0000A4E
:10509000CDF808A04FF478430193DFF84C91CDF898
:1050A00000903B463246BDF87010BDF86800FDF731
:1050B000FDFD199B474D03EB830203EB42032B4499
:1050C0001B9A03219954CDF808A01F230193CDF812
:1050D00000903B463246BDF85C10BDF85400FDF729
:1050E000E5FD149B03EB830203EB42032B44169A6A
:1050F000042199547AE52646199428251A95052104
:105100001B9198221C92102414944FF48C701590CB
:10511000169117920A960B950C910D920F94109080
:105120001191129287E501261496282515950521DF
:10513000169198221792102419944FF48C701A909B
:105140001B911C920F961095119112920A940B903C
:105150000C910D9272E5224B1D78224B1E784FF078
:105160000009CDF808904FF4784301931E4F009743
:1051700033462A46BDF87010BDF86800FDF796FD6D
:10518000199B144C03EB830203EB420323441B9A49
:1051900003219954CDF808901F23019300973346BB
:1051A0002A46BDF85C10BDF85400FDF77FFD149B46
:1051B00003EB830203EB42032344169A0421995420
:1051C000DDE400BF6423000868230008808C011020
:1051D00048300008742F000844300008682F000889
:1051E0007D8401107C8401105C84011010B5154889
:1051F00010F096FC8020FDF76BFC1E2001F04AFEAB
:105200000020FDF75FFC104810F08AFC012403E049
:105210000E4810F085FC01242046FDF753FC0C4895
:1052200010F07EFC962001F035FE2146094810F072
:10523000F1FB402CECD0084810F072FC6400E4B2A2
:10524000EAE700BF888C0110988C0110CC8C01100B
:10525000A48C0110B48C0110D88C011000B583B05F
:10526000002301930222009280220349034801F0A7
:10527000D5FB03B05DF804FBE48C0110ED51001088
:10528000014B01221A7070475C30000800B583B0F2
:1052900016E04FF0FF320192002301A91648006882
:1052A00000F00AFE154802680132154981FB0231FF
:1052B000D317C3EBA10303EB83035900531A036015
:1052C000104B1B78DBB2012BFAD10E4B00221A7067
:1052D0000A4B1B68002BDCD10B4C13464FF0FF32FE
:1052E00021460548006800F0E7FD2368002BD9DD62
:1052F000013B2360D6E700BF702F0008A8300008EC
:10530000676666665C3000086823000800B583B0F5
:105310000C4B0D4A0D490E48FEF79EFE002204215B
:10532000012001F01BFA0B4B1860002301930422AB
:10533000009280220849094801F070FB03B05DF833
:1053400004FB00BF81520010809698006030000876
:1053500070300008702F0008408C01108D52001032
:1053600000B589B01AE09DF81630542B2FD19DF866
:105370001730522B2BD14FF0FF3204920023694695
:105380002748006800F098FD08E0002304934FF0E0
:10539000FF3269462248006800F08EFD214B1B78E1
:1053A000002BF2D000231F4A137005930693ADF82B
:1053B0001C300A2105A8FEF765FD0028EED09DF8F7
:1053C0001410522903D19DF81530532BCBD030390E
:1053D00001EB81019DF81530303B03EB41019DF855
:1053E0001620303A02EB82039DF81720303A02EB88
:1053F000430201230493009102920B01183301939D
:10540000130148330393084810F004FB00234FF0C6
:10541000FF3269460248006800F04EFDBEE700BF5B
:10542000642F0008582D0008E88C011000B583B0E7
:10543000FEF7F4FC0C4810F073FB0022142101204D
:1054400001F08CF9094B1860094810F0E3FA0023C9
:1054500001930622009280220649074801F0DEFAF5
:1054600003B05DF804FB00BF008D0110642F00083D
:105470000C8D0110188D0110615300100000000008
:105480000230800803D001300238FCD100BF00BFD9
:105490007047EFF3108072B6704780F31088704742
:1054A000B0F1FF3F22D008B338B5C50E43011B1A37
:1054B00065F10005AD0045EA93759B00181845F1AC
:1054C0000005ED0045EA5075C4004FF47A720023E0
:1054D000204629460FF074FA6FF47A73A34240F223
:1054E000E733AB4101D26FF0010038BD70470020B7
:1054F00070470000034B0360034B0B608023136075
:10550000704700BFC4360008C4300008034B036076
:10551000034B0B604FF4807313607047943700089F
:10552000C432000830B583B00446002301931D4BFC
:105530001B68CBB11B4B1B68A3B1FFF7AAFF054645
:1055400001F076FF58B14FF47A7000FB04F416486E
:10555000A0FB0434A409FFF7CAFF84420ED82846F2
:10556000FFF79BFF03B030BD104805F03FFB18B9B3
:105570000C4B0E4A1A60DDE701BEDBE7012301AAEE
:10558000211A0848006807F057F90028E7D1019B65
:10559000A34200D901BE0198FFF782FF01F0D2FAC1
:1055A000DDE700BFAC300008D34D6210B03000081A
:1055B000EFF3058303B100BE7047000008B5074B49
:1055C0001B7813B1054B187808BD01F05BFF01385B
:1055D00018BF0120014B1870F4E700BFB439000870
:1055E00010B5FFF7E5FF00F04DF90024032C0BDCAC
:1055F000104B53F8243013B1013424B2F6E70D4BAD
:10560000012143F8241001E04FF0FF3400F05CF971
:10561000002C0BDB04EB8401074B03EB011104208E
:1056200001F0D8F8034B43F8240010BD00BE002061
:10563000FBE700BF643800087438000810B5044662
:10564000FFF7B6FFFFF7BAFF30B142F21071204604
:1056500000F082FF0128F8D110BD10B50446FFF715
:10566000A7FFFFF7ABFF00B910BD204600F0E9FC33
:10567000FAE7000008B5FFF7B3FF074B1860FFF724
:10568000AFFF064B1860FFF7ABFF054B1860FFF745
:10569000A7FF044B186008BDC0390008BC390008DA
:1056A000B8390008C439000808B50346084A10682C
:1056B000084A121A9A4203DB0344054A136008BDE4
:1056C0000FF0FEFA0C2303604FF0FF30F7E700BF46
:1056D0006C23000800E8010808B5024B1868FFF7C2
:1056E000ADFF08BDC039000808B5024B1868FFF7C8
:1056F000B4FF08BDC039000800F1080343604FF053
:10570000FF328260C360036100230360704700239F
:105710000361704743684B609A688A605160996082
:105720000861036801330360704703694168826858
:105730008A60416851605A68824206D00022026144
:105740001A68013A1A601868704782685A60F5E76B
:1057500030B40D68B5F1FF3F11D000F108031C46CD
:105760005B681A68AA42FAD963684B6099608C60DA
:105770006160086103680133036030BC70470469ED
:10578000F2E7000082B0002301930D4B1B68B3F1D8
:10579000FF3F08D04FF03F0383F31188BFF36F8FB3
:1057A000BFF34F8F01BE4FF03F0383F31188BFF368
:1057B0006F8FBFF34F8F019B002BFCD002B070475F
:1057C0007023000808480068006880F308884FF0DC
:1057D000000080F3148862B661B6BFF34F8FBFF349
:1057E0006F8F00DF00BF000008ED00E0DFF80C0065
:1057F000016841F4700101607047000088ED00E02D
:1058000008B54FF03F0383F31188BFF36F8FBFF3E9
:105810004F8F01F0DDF928B14FF0E0234FF08052B7
:10582000C3F8042D002383F3118808BD4FF0807363
:1058300040F8043C21F0010140F8081C054B40F8F9
:105840000C3C40F8202C6FF0020340F8243C443814
:10585000704700BF855700100000000000000000E6
:10586000074B19680868B0E8F04F80F30988BFF368
:105870006F8F4FF0000080F311887047AFF3008006
:105880003CFA00084FF03F0383F31188BFF36F8F9A
:10589000BFF34F8F0B4A136801331360012B00D005
:1058A00070474FF0E023D3F8043D13F0FF0FF7D01B
:1058B0004FF03F0383F31188BFF36F8FBFF34F8F18
:1058C00001BEEDE770230008094B1B6843B94FF098
:1058D0003F0383F31188BFF36F8FBFF34F8F01BE78
:1058E000034A1368013B13600BB983F311887047B7
:1058F000702300080000000000000000000000000D
:10590000EFF30980BFF36F8F154B1A681EF0100F6D
:1059100008BF20ED108A20E9F04F10602DE9090042
:105920004FF03F0080F31188BFF34F8FBFF36F8FAD
:1059300001F00EFB4FF0000080F3118809BC1968DC
:105940000868B0E8F04F1EF0100F08BFB0EC108AE6
:1059500080F30988BFF36F8F704700BFAFF30080FB
:105960003CFA00084FF0E022002313619361074BDB
:105970001B680749A1FB03139B09013B53610723E4
:105980001361044B9B68044ADA63704704230008E0
:10599000D34D621000ED00E00158001030B583B027
:1059A0004FF0E023D3F8002D3E4B9A421AD04FF02F
:1059B000E023D3F8002D3C4B9A421DD03B4B1A7884
:1059C000D2B20192FF221A701B78DBB28DF803303D
:1059D0009DF8033003F03F03354A1370354B07221F
:1059E0001A601DE04FF03F0383F31188BFF36F8F00
:1059F000BFF34F8F01BEDAE74FF03F0383F3118807
:105A0000BFF36F8FBFF34F8F01BED7E7294A1368EB
:105A1000013B13609DF803305B00DBB28DF803306F
:105A20009DF8033013F0800FF0D1224B1B68042B3C
:105A300008D04FF03F0383F31188BFF36F8FBFF39C
:105A40004F8F01BE1B4A13681B02136003F4E0630F
:105A50001360019BDBB2154A13704FF0E024D4F8B9
:105A6000203D43F47F03C4F8203DD4F8203D43F0AB
:105A70007F43C4F8203DFFF775FF00250E4B1D60E6
:105A8000FFF7B4FED4F8343F43F04043C4F8343F4A
:105A9000FFF798FE01F05CFAFFF774FE284603B0AA
:105AA00030BD00BF71C20F4170C20F4100E400E081
:105AB000C8390008CC39000870230008EFF30583CB
:105AC0000F2B0FD9114A9B5CDBB2114A12789A4214
:105AD00008D94FF03F0383F31188BFF36F8FBFF3F3
:105AE0004F8F01BE4FF0E023D3F80C3D03F4E06389
:105AF000084A1268934208D94FF03F0383F3118894
:105B0000BFF36F8FBFF34F8F01BE7047F0E300E02C
:105B1000C8390008CC390008104A12F0070F1AD013
:105B2000D11D21F00701C1F5404313440A460C483A
:105B30000260002141601344083B23F00703094839
:105B4000036059601960991A51601360064B19601F
:105B5000064B196070474FF44043E8E7D43900081A
:105B6000E4F90008D0390008D8F90008D4F9000891
:105B7000164B1A461B688342FBD3516802EB010C9B
:105B8000844509D0416800EB010C634509D00360EE
:105B9000904219D01060704740680144516010462F
:105BA000F0E710B40A4C2468A3420BD05B68194498
:105BB000416013681B680360904200D010605DF87C
:105BC000044B70470460F7E7704700BFE4F9000832
:105BD000D039000870B5054601F09AFD3C4B1B68B2
:105BE00093B13DB105F00703C3F11003DA43AA42B4
:105BF0000DD31D44002D0CDBF5B1364B1B68AB42B9
:105C00001ED3354A146821E0FFF786FFE9E7002537
:105C1000F0E701F099F80026FEF7ECFC16F0070F0C
:105C200008D04FF03F0383F31188BFF36F8FBFF3AA
:105C30004F8F01BE304670BD01F086F80026EBE7BD
:105C400001F082F80026E7E722461C466368AB4273
:105C500002D22368002BF7D11D4B1B68A34233D01F
:105C6000166808362368136063685B1B102B12D913
:105C7000601910F0070F08D04FF03F0383F311882D
:105C8000BFF36F8FBFF34F8F01BE63685B1B436031
:105C90006560FFF76DFF62680E490B689B1A0B6029
:105CA0000E4909688B4201D20C490B6042F0004258
:105CB0006260002323600A4A13680133136001F015
:105CC00043F8002EAAD1A7E701F03EF80026A3E78B
:105CD000D0390008D4F90008E4F90008D8F9000820
:105CE000DCF9000800283AD038B50446A0F10805D0
:105CF00050F8043C002B08DB4FF03F0383F311887E
:105D0000BFF36F8FBFF34F8F01BE54F8083C43B110
:105D10004FF03F0383F31188BFF36F8FBFF34F8FB3
:105D200001BE54F8043C002B02DA54F8082C02B1EE
:105D300038BD23F0004344F8043C01F0E9FC54F87A
:105D4000041C074A13680B4413602846FFF710FF32
:105D5000044A13680133136000F0F6FFE8E7704768
:105D6000D4F90008E0F900080346406A18B11B6B3B
:105D70001868C0F10700704710B50446FFF782FDB0
:105D8000A26BE36B9A4204D00024FFF79DFD2046EE
:105D900010BD0124F9E710B50446FFF773FDA36BAE
:105DA00023B90124FFF790FD204610BD0024F9E738
:105DB00070B504461546866B026C5AB903681BB170
:105DC00000200136A66370BD806801F033FD00231A
:105DD000A360F6E76DB940680FF0BAF8226C63680B
:105DE00013446360A268934219D323686360284612
:105DF000E7E7C0680FF0ACF8226C5142E3689B1AE9
:105E0000E3602268934202D2A3680B44E360022D50
:105E100001D00020D5E726B1013E0020D1E7284679
:105E2000CFE70020CDE70346026C6AB110B5084603
:105E3000D9681144D9609C68A14201D31968D9601E
:105E4000D9680FF085F810BD704738B50546FFF7E3
:105E500019FD95F8454064B201E0013C64B2002CA4
:105E60000ADD6B6A43B105F1240001F0A9F90028AD
:105E7000F3D001F0D7FAF0E7FF2385F84530FFF7BC
:105E800023FDFFF7FFFC95F8444064B201E0013CBC
:105E900064B2002C0ADD2B6943B105F1100001F05A
:105EA0008FF90028F3D001F0BDFAF0E7FF2385F861
:105EB0004430FFF709FD38BDF0B585B00F460192BB
:105EC0001D46044690B1DFB1022D26D001F0DAFA6A
:105ED00050B9019B43B14FF03F0383F31188BFF3E7
:105EE0006F8FBFF34F8F01BE002661E04FF03F037D
:105EF00083F31188BFF36F8FBFF34F8F01BEE2E7CB
:105F0000236C002BE0D04FF03F0383F31188BFF3E5
:105F10006F8FBFF34F8F01BED6E7E36B012BD5D058
:105F20004FF03F0383F31188BFF36F8FBFF34F8FA1
:105F300001BECBE72A4639462046FFF739FF636AA0
:105F40007BB948B14FF0E0234FF08052C3F8042DE5
:105F5000BFF34F8FBFF36F8FFFF7B6FC012005B083
:105F6000F0BD04F1240001F02BF90028F4D04FF02B
:105F7000E0234FF08052C3F8042DBFF34F8FBFF3DF
:105F80006F8FE9E7FFF7A0FC0020E8E702A801F027
:105F9000EDFB012619E0002384F8443021E00023C2
:105FA00084F8453023E02046FFF74FFF00F0CCFE99
:105FB000FFF768FCA26BE36B9A42BBD3022DB9D00A
:105FC000019B002BDED0002EE0D0FFF77DFC01F01E
:105FD0009FFBFFF757FC94F8440040B2B0F1FF3F3D
:105FE000D9D094F8450040B2B0F1FF3FD7D0FFF7C9
:105FF0006BFC01A902A801F0CFF9D8B92046FFF740
:10600000BBFE0028CFD0019904F1100001F094FBF1
:106010002046FFF71AFF00F097FE0028C8D14FF086
:10602000E0234FF08052C3F8042DBFF34F8FBFF32E
:106030006F8FBDE72046FFF708FF00F085FE0020C8
:106040008DE738B5044630B1A56801F015FA8542F0
:106050000BD0002038BD4FF03F0383F31188BFF30E
:106060006F8FBFF34F8F01BEEEE7E368013BE36044
:106070000BB10120EEE71A4619462046FFF71CFF38
:106080000120E7E72DE9F8430E4690461D460446F9
:10609000C8B116B3022D2DD0FFF710FDEFF3118913
:1060A0004FF03F0383F31188BFF36F8FBFF34F8F20
:1060B000A26BE36B9A422AD3022D28D0002089F3E9
:1060C0001188BDE8F8834FF03F0383F31188BFF3D5
:1060D0006F8FBFF34F8F01BEDBE7236C002BD9D04E
:1060E0004FF03F0383F31188BFF36F8FBFF34F8FE0
:1060F00001BECFE7E36B012BCED04FF03F0383F31C
:106100001188BFF36F8FBFF34F8F01BEC4E794F8C0
:1061100045707FB2A36B2A4631462046FFF748FE02
:10612000B7F1FF3F0FD1636A0BB90120C7E704F154
:10613000240001F045F8E0B1B8F1000F1BD00120B8
:10614000C8F80000BBE701F0F1FA874215D27F2FB3
:1061500005D001377FB284F845700120AFE74FF0DA
:106160003F0383F31188BFF36F8FBFF34F8F01BEDF
:10617000EFE70120A3E70120A1E701209FE7F8B5A1
:106180000D46044640B3236C43B14FF03F0383F305
:106190001188BFF36F8FBFF34F8F01BE23682BB3FE
:1061A000FFF78CFCEFF311874FF03F0383F3118867
:1061B000BFF36F8FBFF34F8FA36BE26B9A4241D94E
:1061C00094F8456076B20133A363B6F1FF3F23D163
:1061D000636AC3B9012036E04FF03F0383F31188AF
:1061E000BFF36F8FBFF34F8F01BECCE7A368002BC7
:1061F000D6D04FF03F0383F31188BFF36F8FBFF307
:106200004F8F01BECCE704F1240000F0D9FFE8B1C4
:10621000F5B10120286016E001F088FA864219D213
:106220007F2E05D0013676B284F8456001200AE061
:106230004FF03F0383F31188BFF36F8FBFF34F8F8E
:1062400001BEEFE7002087F31188F8BD0120FAE7CF
:106250000120F8E70120F6E7F0B585B00F4601927E
:10626000044680B1CFB101F00DF950B9019B43B1A3
:106270004FF03F0383F31188BFF36F8FBFF34F8F4E
:1062800001BE002655E04FF03F0383F31188BFF3B2
